:020000040800F2
:10000000F8060020D9010008571200084710000820
:1000100055120008210500083914000800000000EE
:100020000000000000000000000000003113000884
:1000300023050008000000007912000833130008AF
:10004000F3010008F3010008F3010008F3010008C0
:10005000F3010008F3010008F3010008F3010008B0
:10006000F3010008F3010008F3010008F3010008A0
:10007000F3010008F3010008F3010008F301000890
:10008000F3010008F3010008F3010008F301000880
:10009000F3010008F3010008F3010008F301000870
:1000A000F3010008F3010008F3010008F301000860
:1000B000F3010008F3010008F3010008F301000850
:1000C000F3010008F3010008F3010008F301000840
:1000D000F3010008F3010008F3010008F301000830
:1000E000F3010008F3010008F3010008F301000820
:1000F000F3010008F3010008F3010008F301000810
:10010000F3010008F3010008F3010008F3010008FF
:10011000F3010008F3010008F3010008F3010008EF
:10012000F3010008F3010008F3010008F3010008DF
:10013000F30100080000000000000000F3010008C7
:10014000F3010008F3010008F3010008F3010008BF
:10015000F3010008F3010008F3010008F3010008AF
:10016000F3010008F3010008F3010008F30100089F
:10017000F3010008F3010008F3010008000000008B
:1001800000000000F3010008000000000000000073
:10019000F30100080000000000000000F301000867
:1001A000000000000000000000000000F301000853
:1001B000F3010008F3010008F3010008F30100084F
:1001C000F3010008DFF80CD000F098F90048004770
:1001D000E5140008F8060020064880470648004756
:1001E000FEE7FEE7FEE7FEE7FEE7FEE7FEE7FEE7E7
:1001F000FEE7FEE7E5130008C50100082DE9F05F02
:100200000546002092469B46884606468146402485
:100210001BE0284641464746224600F0CAF85346AE
:100220005A46C01A914110D311461846224600F092
:10023000B1F82D1A67EB01084F4622460120002134
:1002400000F0A8F817EB00094E41201EA4F10104AC
:10025000DFDC484631462A464346BDE8F09F2DE99B
:10026000FE4F81EA030404F0004421F000410094B1
:100270004FF0000B23F0004350EA01045ED052EA35
:1002800003045BD0C3F30A54C1F30A552C44A4F20F
:10029000F3340194A0FB0254C1F3130141F4801123
:1002A000C3F3130343F4801301FB024400FB034E2A
:1002B000840A970A44EA815447EA8357A4FB0768F3
:1002C00002958D0A05FB07854FEA932C04FB0C541D
:1002D0002705029D4FEA065847EA1637B5EB080591
:1002E0006EEB070C870E920E47EA811742EA8312E3
:1002F000A7FB0201B6EB0B0164EB00042B0D43EAF4
:100300000C335E1844EB1C50DA465146E7FB020101
:10031000C5F313044FEA0B3343EA14534FEA043294
:10032000019C43EA0603A4F10C040294009CCDE96D
:1003300000B400F094F803B0BDE8F08F002001464F
:10034000F9E70EB540F2334102910021CDE90011E9
:100350000A460B4600F083F803B000BD01F00043ED
:1003600030B421F0004150EA010206D00A0DA2F596
:100370006072C1F31301002A02DC30BC0020704718
:10038000440F44EAC104C100E01830BC00EBC25085
:1003900000F01FB8202A04DB203A00FA02F1002006
:1003A00070479140C2F1200320FA03F319439040B3
:1003B0007047202A04DB203A21FA02F0002170471E
:1003C00021FA02F3D040C2F12002914008431946BD
:1003D00070470029A8BF7047401C490008BF20F0A3
:1003E0000100704710B4B0FA80FC00FA0CF050EA3B
:1003F000010404BF10BC704749B1CCF1200421FABC
:1004000004F411FA0CF118BF012121430843A3EBB6
:100410000C01CB1D4FEA00614FEA102042BF0020C3
:1004200010BC704700EBC35010440029A4BF10BC9F
:100430007047401C490008BF20F0010010BC704705
:1004400010B5141E73F1000408DA401C41F10001DC
:1004500092185B411A4301D120F0010010BD2DE933
:10046000F04D92469B4611B1B1FA81F202E0B0FA2A
:1004700080F220329046FFF78DFF04460F4640EA97
:100480000A0041EA0B0153465A46084313D011466D
:1004900053EA010019D0C8F140025046FFF789FF26
:1004A00005460E46504659464246FFF773FF08433D
:1004B00005D0012004E020463946BDE8F08D00203B
:1004C000054346EAE0762C4337430A986305E40A7D
:1004D000A0EB08000022FD0A44EA47540A3002D586
:1004E00000200146E9E7010510196941DDE90845E9
:1004F00000196941BDE8F04DA2E70000064C074D28
:1005000006E0E06840F0010394E8070098471034E3
:10051000AC42F6D3FFF75AFE4817000868170008E8
:10052000FEE7704770B5044600F0E6F80546601C2B
:1005300002D004480078044400F0DEF8401BA042DA
:10054000FAD370BD440000202DE9F84FDFF874B1F4
:1005500000224FF001084FF0030A4FF00F090BF192
:10056000040E00BF0B6808FA02F42340A3426ED1C8
:100570004D68022D01D0122D0ED1D50800EB850C4F
:10058000DCF820505607F70E09FA07F6B5430E6956
:10059000BE402E43CCF82060066855000F790AFA59
:1005A00005FC07F0030726EA0C06AF403743076057
:1005B0004E68012E05D0022E03D0112E01D0122E2E
:1005C0000ED18668CF6826EA0C06AF4037438760B5
:1005D0004668A6430C79C4F3001494403443446045
:1005E000C4688E6824EA0C04AE402643C6604C689A
:1005F000E40060D5344C256845F4804525602468C6
:1006000022F0030504F480440094304C2E19D6F8EF
:10061000084895072F0F09FA07F5AC432C4DA8425F
:1006200001D100251FE02B4DA84201D101251AE080
:10063000294DA84201D1022515E0284DA84201D13B
:10064000032510E0264DA84202D104250BE032E03C
:10065000244DA84201D1052505E0234DA84201D132
:10066000062500E00725BD402543C6F80858DBF8FD
:1006700000405D464E689C43F60300D51C432C6049
:10068000DEF8004075464E689C43B60300D51C4317
:100690002C600C4D08352C684E689C43F60200D542
:1006A0001C432C60074D0C352C684E689C43B602E9
:1006B00000D51C432C60521C102AFFF453AFBDE838
:1006C000F88F0000003C01404438024000300140F7
:1006D000000002400004024000080240000C0240FA
:1006E0000010024000140240001802400AB181616B
:1006F00070470904FBE7000001488068704700006C
:1007000044000020024881680278114481607047EB
:10071000440000200B4810B5016841F400710160ED
:10072000016841F480610160016841F480710160F9
:10073000032000F075F8002000F006F800F024F81F
:10074000002010BD003C024070B50D4D04464FF432
:100750007A712878B1FBF0F00A490968B1FBF0F032
:1007600000F059FC48B9102C07D200222146501E37
:1007700000F036F800206C6070BD012070BD0000F4
:10078000440000200000002010B5032000F048F8CD
:10079000002211466FF00B0000F022F800221146F3
:1007A0006FF00A0000F01CF8002211466FF00900FB
:1007B00000F016F800221146501F00F011F8002238
:1007C0001146101F00F00CF800221146901E00F098
:1007D00007F80022BDE810401146501EAFF300801C
:1007E000F0B40E4B1B680C46C3F30223C3F107059C
:1007F000042D00D90425191D072901D2002300E08A
:10080000DB1E012606FA05F1491E214099409E4053
:10081000761E16403143F0BC00F01EBD0CED00E02A
:10082000064900F0070208684FF6FF03184040EA47
:100830000220034A10430860704700000CED00E0FE
:100840000000FA052DE9F0470E46050065D0DFF8F7
:100850001481D8F80000F7B200F00F00B04207D2C0
:1008600088F80070D8F8000000F00F00B04254D1B2
:1008700028683D4C810712D5400703D5206840F415
:10088000E05020602878000703D5206840F46040DD
:1008900020602068A96820F0F000084320602878D4
:1008A000C0072DD0304968680839012812D00228C5
:1008B00013D0032811D00968890700292DDA21688F
:1008C00021F0030101432160FFF716FF814641F249
:1008D000883A0EE009688903EFE709688901ECE7C7
:1008E000FFF70AFFA0EB0901514502D90320BDE83B
:1008F000F0872068696800F00C00B0EB810FEFD141
:10090000D8F80010404601F00F01B14207D9077036
:10091000006800F00F00B04201D00120E7E728781E
:10092000400705D52068E96820F4E05008432060BE
:100930002878000706D52068296920F4604040EA3D
:10094000C100206000F01CF82168084AC1F30311BF
:10095000515CC840064908600020FFF7F5FE002002
:10096000C5E70000003C0240083802403817000884
:1009700000000020014800687047000000000020CF
:10098000224810B5006810F00C02214815D0411023
:10099000042A11D01D4C241F082A0FD00C2A0CD178
:1009A0002268236802F03F025B0221D52068C0F371
:1009B0008810A0FB010120E0084610BD22682368D2
:1009C00002F03F025B0205D52068C0F38810A0FB4F
:1009D000010104E02168C1F38811A1FB000100239B
:1009E000FFF70CFC2168C1F30141491C49000AE0F2
:1009F0002168C1F38811A1FB00010023FFF7FEFB72
:100A00002168C1F30271B0FBF1F010BD083802405B
:100A10000024F4002DE9F84F0546DFF828B30078EC
:100A2000ABF10407C007A7F1040451D0DBF80010B4
:100A30005846C1F3810101290FD00168C1F381013A
:100A4000022902D13968490207D40068C0F3810045
:100A5000032809D13868400206D52068800337D5BD
:100A60006868002872D033E06868B0F5803F10D025
:100A7000B0F5A02F206810D020F4803020602068CE
:100A800020F4802020606868A8B1FFF735FE064694
:100A90000DE0206840F48030F4E740F480202060CE
:100AA000F7E700BFFFF728FE801B642878D820688E
:100AB0008003F7D50CE0FFF71FFE064605E000BFF8
:100AC000FFF71AFE801B6428F0D820688003F7D453
:100AD0002878DFF8749280074FF0000A46D5DBF8DB
:100AE0000010584611F00C0F0FD00168C1F38101BE
:100AF000022902D13968490207D50068C0F3810094
:100B0000032809D13868400206D42068800715D52B
:100B1000E86801281AD111E0E868C0B10120C9F8DD
:100B20000000FFF7E9FD064605E000BFFFF7E4FD22
:100B3000801B0228BAD820688007F7D52068296969
:100B400020F0F80040EAC10020600FE0F7E0C9F8AB
:100B500000A0FFF7D1FD064605E000BFFFF7CCFD82
:100B6000801B02281CD820688007F7D4287800074B
:100B700027D5DFF8D0817548696908F16C0881B123
:100B800001210160FFF7B8FD064604E0FFF7B4FD60
:100B9000801B022804D8D8F800008007F6D510E0A2
:100BA00089E0C0F800A0FFF7A7FD064605E000BFFA
:100BB000FFF7A2FD801B02287DD8D8F8000080072F
:100BC000F6D42878400769D55E484FF000083830E1
:100BD0000068C0000BD45B483830016841F0805198
:100BE000016000684FF0010800F080500090584EFE
:100BF0003068C00511D4306840F480703060FFF771
:100C00007BFD009006E000BFFFF776FD0099401ADB
:100C1000022850D83068C005F6D54A4EA868683614
:100C200001280FD00528306810D020F00100306076
:100C3000306820F004003060A868B8B1FFF75CFDB0
:100C400000900FE0306840F00100F4E740F004004D
:100C50003060F7E7FFF750FD0099411A41F2883004
:100C6000814264D830688007F4D50EE0FFF744FD78
:100C7000009007E0FFF740FD0099411A41F28830EB
:100C8000814254D830688007F4D4B8F1000F05D001
:100C90002C483830016821F080510160A869A8B360
:100CA000DBF80010C1F38101022948D00228C9F8FD
:100CB00060A005D000E03AE0FFF71EFD054639E0F0
:100CC000FFF71AFD064604E0FFF716FD801B022819
:100CD0002DD820688001F7D4F5E907010843E968B9
:100CE0001C4A490802EB0141AA6841EA8211084303
:100CF000297C40EA0160297D40EA017038600120CA
:100D0000C9F86000FFF7F8FC054606E015E000BFF3
:100D1000FFF7F2FC401B022809D820688001F7D5B4
:100D20000BE000BFFFF7E8FC401B022802D90320BC
:100D3000BDE8F88F20688001F4D40020F8E7012096
:100D4000F6E700000838024000004742800E4742A4
:100D5000007000400000FFFF70B5040005D00025C2
:100D6000A56294F8510010B106E0012070BD84F82E
:100D70005050204600F030F8022084F851002068DE
:100D8000016821F040010160D4E901010843D4E980
:100D900003121143084361690843218B01F4007178
:100DA0000843E1690843216A0843A16A08432168AE
:100DB0000860A069042101EA1040616A08432168C3
:100DC00048602068C16921F40061C1616565012046
:100DD00084F85100002070BD00B500680E4987B04E
:100DE000884216D10D480021026842F40052026088
:100DF000006800F400500590642000900220CDE9C6
:100E00000101032003900520049069460448FFF780
:100E10009BFB07B000BD0000003401404438024095
:100E2000001002402DE9F84F044690F850000026CB
:100E30000A9F9A4693460D464FF0010801280ED0AE
:100E4000012084F85000FFF757FC814694F85100C8
:100E5000616801280CD0B1F5827F07D102E0022041
:100E6000BDE8F88FA16809B9042801D00226BDE0C9
:100E700055B1BBF1000F07D0BAF1000F04D094F8C0
:100E80005100012802D004E00126AFE0052084F8DB
:100E9000510000206065C4F838B0A4F83EA0A4F862
:100EA0003CA02563A4F836A0A4F834A020646064B4
:100EB00020680168490603D4016841F040010160DF
:100EC000E068B0F5006F606804D0E8B3E08E0128F8
:100ED0003BD06AE010B1E08E01282ED1216835F8B0
:100EE000020BC860E08E401EE08626E0B8F1000FDD
:100EF0000DD0E08E58B120688168890707D535F894
:100F0000021BC160E08E401EE0864FF00008E08FBB
:100F100058B120688168C90707D0C0682BF8020B58
:100F2000E08F401EE0874FF00108781C05D0FFF7E6
:100F3000E3FBA0EB0900B84246D2E08E0028D5D1F1
:100F4000E08F0028D2D136E0FFE7216815F8010BC9
:100F50000873E08E401EE08627E000BFB8F1000F66
:100F60000DD0E08E58B120688168890707D515F843
:100F7000011B0173E08E401EE0864FF00008E08FF9
:100F800058B120688168C90707D0C0680BF8010B09
:100F9000E08F401EE0874FF00108781C05D0FFF776
:100FA000ABFBA0EB0900B8420ED2E08E0028D5D1F1
:100FB000E08F0028D2D13B46012202212046CDF805
:100FC000009000F06AF908B103260FE04A4639465E
:100FD000204600F052F918B101262020606505E096
:100FE000A06818B92068C16880680090012084F862
:100FF0005100002084F85000304631E74FF0E021E6
:101000000428086903D020F004000861704740F00C
:101010000400FAE7704710B5401EB0F1807F01D39D
:10102000012010BD4FF0E02460610F21601700F037
:1010300013F90020A06107202061002010BD10B529
:10104000FFF7E8FF10BDFEE7114810B50F4901603A
:101050004FF482714160002102228160C0E90312D5
:1010600001224261520282612822C0E907214162C5
:1010700081620A21C162FFF76FFE002805D0BDE83A
:101080001040212103A000F0D8B910BD0034014068
:10109000A00000202E2E5C4C5443363830335F7352
:1010A00072635C4C545F5350492E63002DE9F84342
:1010B000804689460026132000F0A4FA0446002545
:1010C00043E000BF05F180008DF800006946012073
:1010D00000F0CEFA8DF8010004208DF80200DC202B
:1010E0008DF8030000F0C2F913232246042168465C
:1010F00000F0FAFA00F0B2F9A77C2146122000F0C5
:10110000B7FA874201D04FF0FF36002305EB4502C6
:10111000184609EBC201E25C5B1CE75C3F0702EB8F
:101120001752A2F5007221F81020E25C5B1CE75C0C
:101130005B1C3F0107EB121201EB4007A2F50072A6
:10114000801C7A800C28E6DB6D1C4545BADB204606
:1011500000F094F9F0B2BDE8F88310B500F086F91C
:10116000102000F09DFAB02000F09AFABDE810407F
:1011700000F074B92DE9F04780460B208A46062717
:10118000814600F03FFA0446002527E005F1800083
:1011900020702146012000F06BFA60700120A070E1
:1011A000C720E070042605EB450100200AEB410151
:1011B0000A5CA255761C401CC0B2F6B2B842F7D306
:1011C000384600F055FAA05500F050F9214648463F
:1011D00000F074FA00F042F96D1CEDB24545D5D32C
:1011E0002046BDE8F04700F049B9000070B5174847
:1011F00086B00024016841F010010160016801F02F
:1012000010010591016841F080010160016801F061
:1012100080010591016841F00201016000680C4EF7
:1012200000F002004FF480750590002229463046F8
:10123000FFF75CFA01200095CDE9010469463046CC
:101240000394FFF781F906B070BD0000303802400A
:1012500000040240FEE770470907090E002806DA7D
:1012600000F00F0000F1E02080F8141D704700F13D
:10127000E02080F800147047704738B50B460092A4
:1012800004460022802100F008F8002804D0606D98
:1012900040F020006065032038BD2DE9F0411D4677
:1012A00017460E460446DDF8188035E0681C33D03A
:1012B0002DB1FFF721FAA0EB0800A8422CD320683B
:1012C000416821F0E00141606068B0F5827F0BD198
:1012D000A068B0F5004F02D0B0F5806F04D120684F
:1012E000016821F040010160A06AB0F5005F0AD1F9
:1012F000206801684DF6FF721140016020680168A6
:1013000041F400510160012084F85100002084F86C
:1013100050000320BDE8F0812068806836EA0000B4
:1013200004D00020B842C1D10020F3E70120F9E742
:10133000704710B5FFF7E6F9BDE81040FFF77FBE34
:1013400030B5264893B00025016841F08051016016
:10135000006800F0805012902148016821F440415B
:1013600041F4004101600068022400F44040129002
:1013700001200090000401908001CDE90640042086
:1013800008908020CDE909040B9468460C94FFF77F
:1013900041FB00B1FEE70DA90F2081E831004FF4B9
:1013A000A05010904FF48050119004210DA8FFF729
:1013B00049FA00B1FEE7FFF7DDFA4FF47A71B0FBAE
:1013C000F1F0FFF728FE0420FFF718FE0022114677
:1013D000501EFFF705FA13B030BD00004038024040
:1013E000007000401048016841F4700101600F482E
:1013F000016841F0010101600C4A002108321160CE
:1014000002680B4B1A400260031D0A4A1A60026808
:1014100022F48022026005480C300160024958061F
:10142000803908607047000088ED00E00038024015
:10143000FFFFF6FE10300024FEE7FEE702E008C8DA
:10144000121F08C1002AFAD170477047002001E03E
:1014500001C1121F002AFBD17047000001221102B6
:101460000148FFF743B900000004024000224FF496
:1014700080710148FFF73AB90004024010B5002816
:1014800021D0114B0022001F196803E0814203D8CC
:101490000A4649680029F9D152B11368841A9C425E
:1014A00004D1006818441060104602E0506000E06B
:1014B000186039B102680B1A934203D10B681A44C1
:1014C00002604968416010BD50000020044891222C
:1014D0000021027041708170C170017141717047CB
:1014E0003C0000202DED028BFFF714F9FFF728FFD9
:1014F000FFF77CFEFFF7A8FDFFF7FEF83D4DDFF894
:10150000F8909FED3E8B68804FF47A7AA9F130080D
:101510002888401C2880FFF7EFF86988401A50455A
:1015200006D92888A88000202880FFF7E5F8688081
:10153000FFF7CCFF2F4901203831FFF71BFE0520B4
:10154000FEF7F0FFFFF709FE0A20FEF7EBFF2A493E
:101550000120FFF7ABFD0020044600EB400009EB43
:10156000C00708EB001600BF37F81400FEF7E9FECD
:10157000B0EE481AF0EE681A53EC112BFEF76FFE2E
:10158000FEF7ECFE46F82400641C0C2CECDB98ED16
:10159000000A404685ED020A98ED010A85ED030A2E
:1015A00098ED020A85ED040A98ED030A85ED050A17
:1015B00098ED040A85ED060A98ED050A85ED070AFF
:1015C00098ED060A85ED080A98ED070A85ED090AE7
:1015D00090ED080A85ED0A0A90ED090A85ED0B0ADF
:1015E00090ED0A0A85ED0C0A98ED0B0A85ED0D0ABF
:1015F0008EE700000400002088000020FA7E6ABC0C
:101600007493583FF0B50B30154D20F007010024BE
:10161000144A0FE003688B420BD38B4205D95E1A44
:1016200043184768C3E9006700E04368136002C0DD
:1016300004E0021D10680028ECD12046002802D1E9
:10164000286808B10020F0BD064A07481060074A24
:10165000121A22F00702C0E9002401202860D7E70F
:101660005400002050000020FC000020F802002060
:1016700070B504464120002207250EE08B5C5840DF
:101680000823060602D585EA400000E040005B1E04
:10169000C0B213F0FF03F4D1521CA242EEDB70BDC6
:1016A00001B582B04FF0FF300090012301AA02A9DA
:1016B0000148FFF7B7FB0EBDA00000202DE9FC415B
:1016C00000240E460546671E08E03119012301AAD1
:1016D00004480097FFF7A6FB641CE4B2AC42F4D3C5
:1016E000BDE8FC81A00000202DE9FC4700241E4637
:1016F00091460F468046651E0AE000BF08EB0401D4
:10170000012301AA0B480095FFF78CFB641CE4B28F
:10171000BC42F3D3002409E009EB04020123FF21BA
:1017200004480095FFF77EFB641CE4B2B442F3D397
:10173000BDE8FC87A00000200000000000000000C1
:1017400001020304060708096817000800000020CA
:10175000580000003C140008C01700085800002082
:10176000A00600004C1400080024F4000000000053
:101770000000000000000000000000000000000069
:101780000000000000000000000000000000000059
:101790000000000000000000000000000000000049
:1017A0000000000000000000000000000100000038
:1017B0001000000000000000000000000000000019
:04000005080001C529
:00000001FF
